{
  "contractName": "StoreListings",
  "abi": [
    {
      "inputs": [],
      "stateMutability": "nonpayable",
      "type": "constructor"
    },
    {
      "anonymous": false,
      "inputs": [
        {
          "indexed": true,
          "internalType": "address",
          "name": "owner",
          "type": "address"
        },
        {
          "indexed": true,
          "internalType": "address",
          "name": "approved",
          "type": "address"
        },
        {
          "indexed": true,
          "internalType": "uint256",
          "name": "tokenId",
          "type": "uint256"
        }
      ],
      "name": "Approval",
      "type": "event"
    },
    {
      "anonymous": false,
      "inputs": [
        {
          "indexed": true,
          "internalType": "address",
          "name": "owner",
          "type": "address"
        },
        {
          "indexed": true,
          "internalType": "address",
          "name": "operator",
          "type": "address"
        },
        {
          "indexed": false,
          "internalType": "bool",
          "name": "approved",
          "type": "bool"
        }
      ],
      "name": "ApprovalForAll",
      "type": "event"
    },
    {
      "anonymous": false,
      "inputs": [
        {
          "indexed": true,
          "internalType": "address",
          "name": "from",
          "type": "address"
        },
        {
          "indexed": true,
          "internalType": "address",
          "name": "to",
          "type": "address"
        },
        {
          "indexed": true,
          "internalType": "uint256",
          "name": "tokenId",
          "type": "uint256"
        }
      ],
      "name": "Transfer",
      "type": "event"
    },
    {
      "inputs": [
        {
          "internalType": "address",
          "name": "to",
          "type": "address"
        },
        {
          "internalType": "uint256",
          "name": "tokenId",
          "type": "uint256"
        }
      ],
      "name": "approve",
      "outputs": [],
      "stateMutability": "nonpayable",
      "type": "function"
    },
    {
      "inputs": [
        {
          "internalType": "address",
          "name": "owner",
          "type": "address"
        }
      ],
      "name": "balanceOf",
      "outputs": [
        {
          "internalType": "uint256",
          "name": "",
          "type": "uint256"
        }
      ],
      "stateMutability": "view",
      "type": "function"
    },
    {
      "inputs": [
        {
          "internalType": "uint256",
          "name": "tokenId",
          "type": "uint256"
        }
      ],
      "name": "getApproved",
      "outputs": [
        {
          "internalType": "address",
          "name": "",
          "type": "address"
        }
      ],
      "stateMutability": "view",
      "type": "function"
    },
    {
      "inputs": [
        {
          "internalType": "address",
          "name": "owner",
          "type": "address"
        },
        {
          "internalType": "address",
          "name": "operator",
          "type": "address"
        }
      ],
      "name": "isApprovedForAll",
      "outputs": [
        {
          "internalType": "bool",
          "name": "",
          "type": "bool"
        }
      ],
      "stateMutability": "view",
      "type": "function"
    },
    {
      "inputs": [],
      "name": "name",
      "outputs": [
        {
          "internalType": "string",
          "name": "",
          "type": "string"
        }
      ],
      "stateMutability": "view",
      "type": "function"
    },
    {
      "inputs": [
        {
          "internalType": "uint256",
          "name": "tokenId",
          "type": "uint256"
        }
      ],
      "name": "ownerOf",
      "outputs": [
        {
          "internalType": "address",
          "name": "",
          "type": "address"
        }
      ],
      "stateMutability": "view",
      "type": "function"
    },
    {
      "inputs": [
        {
          "internalType": "uint256",
          "name": "",
          "type": "uint256"
        }
      ],
      "name": "prices",
      "outputs": [
        {
          "internalType": "uint256",
          "name": "",
          "type": "uint256"
        }
      ],
      "stateMutability": "view",
      "type": "function"
    },
    {
      "inputs": [
        {
          "internalType": "address",
          "name": "from",
          "type": "address"
        },
        {
          "internalType": "address",
          "name": "to",
          "type": "address"
        },
        {
          "internalType": "uint256",
          "name": "tokenId",
          "type": "uint256"
        }
      ],
      "name": "safeTransferFrom",
      "outputs": [],
      "stateMutability": "nonpayable",
      "type": "function"
    },
    {
      "inputs": [
        {
          "internalType": "address",
          "name": "from",
          "type": "address"
        },
        {
          "internalType": "address",
          "name": "to",
          "type": "address"
        },
        {
          "internalType": "uint256",
          "name": "tokenId",
          "type": "uint256"
        },
        {
          "internalType": "bytes",
          "name": "_data",
          "type": "bytes"
        }
      ],
      "name": "safeTransferFrom",
      "outputs": [],
      "stateMutability": "nonpayable",
      "type": "function"
    },
    {
      "inputs": [
        {
          "internalType": "address",
          "name": "operator",
          "type": "address"
        },
        {
          "internalType": "bool",
          "name": "approved",
          "type": "bool"
        }
      ],
      "name": "setApprovalForAll",
      "outputs": [],
      "stateMutability": "nonpayable",
      "type": "function"
    },
    {
      "inputs": [
        {
          "internalType": "bytes4",
          "name": "interfaceId",
          "type": "bytes4"
        }
      ],
      "name": "supportsInterface",
      "outputs": [
        {
          "internalType": "bool",
          "name": "",
          "type": "bool"
        }
      ],
      "stateMutability": "view",
      "type": "function"
    },
    {
      "inputs": [],
      "name": "symbol",
      "outputs": [
        {
          "internalType": "string",
          "name": "",
          "type": "string"
        }
      ],
      "stateMutability": "view",
      "type": "function"
    },
    {
      "inputs": [
        {
          "internalType": "address",
          "name": "",
          "type": "address"
        }
      ],
      "name": "tips",
      "outputs": [
        {
          "internalType": "uint256",
          "name": "",
          "type": "uint256"
        }
      ],
      "stateMutability": "view",
      "type": "function"
    },
    {
      "inputs": [
        {
          "internalType": "uint256",
          "name": "tokenId",
          "type": "uint256"
        }
      ],
      "name": "tokenURI",
      "outputs": [
        {
          "internalType": "string",
          "name": "",
          "type": "string"
        }
      ],
      "stateMutability": "view",
      "type": "function"
    },
    {
      "inputs": [
        {
          "internalType": "address",
          "name": "from",
          "type": "address"
        },
        {
          "internalType": "address",
          "name": "to",
          "type": "address"
        },
        {
          "internalType": "uint256",
          "name": "tokenId",
          "type": "uint256"
        }
      ],
      "name": "transferFrom",
      "outputs": [],
      "stateMutability": "nonpayable",
      "type": "function"
    },
    {
      "inputs": [
        {
          "internalType": "string",
          "name": "tokenURI",
          "type": "string"
        },
        {
          "internalType": "uint256",
          "name": "price",
          "type": "uint256"
        }
      ],
      "name": "createListing",
      "outputs": [
        {
          "internalType": "uint256",
          "name": "",
          "type": "uint256"
        }
      ],
      "stateMutability": "nonpayable",
      "type": "function"
    },
    {
      "inputs": [
        {
          "internalType": "uint256",
          "name": "tokenId",
          "type": "uint256"
        }
      ],
      "name": "buy",
      "outputs": [],
      "stateMutability": "payable",
      "type": "function"
    },
    {
      "inputs": [
        {
          "internalType": "address payable",
          "name": "to",
          "type": "address"
        }
      ],
      "name": "tip",
      "outputs": [],
      "stateMutability": "payable",
      "type": "function"
    },
    {
      "inputs": [
        {
          "internalType": "address",
          "name": "userAddress",
          "type": "address"
        }
      ],
      "name": "tipScore",
      "outputs": [
        {
          "internalType": "uint256",
          "name": "",
          "type": "uint256"
        }
      ],
      "stateMutability": "nonpayable",
      "type": "function"
    }
  ],
  "bytecode": "0x60806040523480156200001157600080fd5b506040518060400160405280600c81526020017f53746f72654c697374696e6700000000000000000000000000000000000000008152506040518060400160405280600381526020017f49544d0000000000000000000000000000000000000000000000000000000000815250816000908051906020019062000096929190620000b8565b508060019080519060200190620000af929190620000b8565b505050620001cc565b828054620000c69062000197565b90600052602060002090601f016020900481019282620000ea576000855562000136565b82601f106200010557805160ff191683800117855562000136565b8280016001018555821562000136579182015b828111156200013557825182559160200191906001019062000118565b5b50905062000145919062000149565b5090565b5b80821115620001645760008160009055506001016200014a565b5090565b7f4e487b7100000000000000000000000000000000000000000000000000000000600052602260045260246000fd5b60006002820490506001821680620001b057607f821691505b602082108103620001c657620001c562000168565b5b50919050565b61304180620001dc6000396000f3fe6080604052600436106101145760003560e01c806370a08231116100a0578063bc31c1c111610064578063bc31c1c1146103c6578063c87b56dd14610403578063d96a094a14610440578063e985e9c51461045c578063ecc055bb1461049957610114565b806370a08231146102f057806395d89b411461032d578063a22cb46514610358578063ac733ef714610381578063b88d4fde1461039d57610114565b80631b21bc30116100e75780631b21bc30146101e757806323b872dd1461022457806342842e0e1461024d57806344fdf249146102765780636352211e146102b357610114565b806301ffc9a71461011957806306fdde0314610156578063081812fc14610181578063095ea7b3146101be575b600080fd5b34801561012557600080fd5b50610140600480360381019061013b9190611cce565b6104d6565b60405161014d9190611d16565b60405180910390f35b34801561016257600080fd5b5061016b6105b8565b6040516101789190611dca565b60405180910390f35b34801561018d57600080fd5b506101a860048036038101906101a39190611e22565b61064a565b6040516101b59190611e90565b60405180910390f35b3480156101ca57600080fd5b506101e560048036038101906101e09190611ed7565b6106cf565b005b3480156101f357600080fd5b5061020e60048036038101906102099190611f17565b6107e6565b60405161021b9190611f53565b60405180910390f35b34801561023057600080fd5b5061024b60048036038101906102469190611f6e565b6107fe565b005b34801561025957600080fd5b50610274600480360381019061026f9190611f6e565b61085e565b005b34801561028257600080fd5b5061029d600480360381019061029891906120f6565b61087e565b6040516102aa9190611f53565b60405180910390f35b3480156102bf57600080fd5b506102da60048036038101906102d59190611e22565b6108ce565b6040516102e79190611e90565b60405180910390f35b3480156102fc57600080fd5b5061031760048036038101906103129190611f17565b61097f565b6040516103249190611f53565b60405180910390f35b34801561033957600080fd5b50610342610a36565b60405161034f9190611dca565b60405180910390f35b34801561036457600080fd5b5061037f600480360381019061037a919061217e565b610ac8565b005b61039b600480360381019061039691906121fc565b610ade565b005b3480156103a957600080fd5b506103c460048036038101906103bf91906122ca565b610b7e565b005b3480156103d257600080fd5b506103ed60048036038101906103e89190611e22565b610be0565b6040516103fa9190611f53565b60405180910390f35b34801561040f57600080fd5b5061042a60048036038101906104259190611e22565b610bf8565b6040516104379190611dca565b60405180910390f35b61045a60048036038101906104559190611e22565b610d49565b005b34801561046857600080fd5b50610483600480360381019061047e919061234d565b610dfc565b6040516104909190611d16565b60405180910390f35b3480156104a557600080fd5b506104c060048036038101906104bb9190611f17565b610e90565b6040516104cd9190611f53565b60405180910390f35b60007f80ac58cd000000000000000000000000000000000000000000000000000000007bffffffffffffffffffffffffffffffffffffffffffffffffffffffff1916827bffffffffffffffffffffffffffffffffffffffffffffffffffffffff191614806105a157507f5b5e139f000000000000000000000000000000000000000000000000000000007bffffffffffffffffffffffffffffffffffffffffffffffffffffffff1916827bffffffffffffffffffffffffffffffffffffffffffffffffffffffff1916145b806105b157506105b082610ed9565b5b9050919050565b6060600080546105c7906123bc565b80601f01602080910402602001604051908101604052809291908181526020018280546105f3906123bc565b80156106405780601f1061061557610100808354040283529160200191610640565b820191906000526020600020905b81548152906001019060200180831161062357829003601f168201915b5050505050905090565b600061065582610f43565b610694576040517f08c379a000000000000000000000000000000000000000000000000000000000815260040161068b9061245f565b60405180910390fd5b6004600083815260200190815260200160002060009054906101000a900473ffffffffffffffffffffffffffffffffffffffff169050919050565b60006106da826108ce565b90508073ffffffffffffffffffffffffffffffffffffffff168373ffffffffffffffffffffffffffffffffffffffff160361074a576040517f08c379a0000000000000000000000000000000000000000000000000000000008152600401610741906124f1565b60405180910390fd5b8073ffffffffffffffffffffffffffffffffffffffff16610769610faf565b73ffffffffffffffffffffffffffffffffffffffff161480610798575061079781610792610faf565b610dfc565b5b6107d7576040517f08c379a00000000000000000000000000000000000000000000000000000000081526004016107ce90612583565b60405180910390fd5b6107e18383610fb7565b505050565b60086020528060005260406000206000915090505481565b61080f610809610faf565b82611070565b61084e576040517f08c379a000000000000000000000000000000000000000000000000000000000815260040161084590612615565b60405180910390fd5b61085983838361114e565b505050565b61087983838360405180602001604052806000815250610b7e565b505050565b600061088a60076113b4565b600061089660076113ca565b90506108a233826113d8565b8260096000838152602001908152602001600020819055506108c481856115b1565b8091505092915050565b6000806002600084815260200190815260200160002060009054906101000a900473ffffffffffffffffffffffffffffffffffffffff169050600073ffffffffffffffffffffffffffffffffffffffff168173ffffffffffffffffffffffffffffffffffffffff1603610976576040517f08c379a000000000000000000000000000000000000000000000000000000000815260040161096d906126a7565b60405180910390fd5b80915050919050565b60008073ffffffffffffffffffffffffffffffffffffffff168273ffffffffffffffffffffffffffffffffffffffff16036109ef576040517f08c379a00000000000000000000000000000000000000000000000000000000081526004016109e690612739565b60405180910390fd5b600360008373ffffffffffffffffffffffffffffffffffffffff1673ffffffffffffffffffffffffffffffffffffffff168152602001908152602001600020549050919050565b606060018054610a45906123bc565b80601f0160208091040260200160405190810160405280929190818152602001828054610a71906123bc565b8015610abe5780601f10610a9357610100808354040283529160200191610abe565b820191906000526020600020905b815481529060010190602001808311610aa157829003601f168201915b5050505050905090565b610ada610ad3610faf565b8383611625565b5050565b8073ffffffffffffffffffffffffffffffffffffffff166108fc349081150290604051600060405180830381858888f19350505050158015610b24573d6000803e3d6000fd5b5034600860008373ffffffffffffffffffffffffffffffffffffffff1673ffffffffffffffffffffffffffffffffffffffff1681526020019081526020016000206000828254610b749190612788565b9250508190555050565b610b8f610b89610faf565b83611070565b610bce576040517f08c379a0000000000000000000000000000000000000000000000000000000008152600401610bc590612615565b60405180910390fd5b610bda84848484611791565b50505050565b60096020528060005260406000206000915090505481565b6060610c0382610f43565b610c42576040517f08c379a0000000000000000000000000000000000000000000000000000000008152600401610c3990612850565b60405180910390fd5b6000600660008481526020019081526020016000208054610c62906123bc565b80601f0160208091040260200160405190810160405280929190818152602001828054610c8e906123bc565b8015610cdb5780601f10610cb057610100808354040283529160200191610cdb565b820191906000526020600020905b815481529060010190602001808311610cbe57829003601f168201915b505050505090506000610cec6117ed565b90506000815103610d01578192505050610d44565b600082511115610d36578082604051602001610d1e9291906128ac565b60405160208183030381529060405292505050610d44565b610d3f84611804565b925050505b919050565b600060096000838152602001908152602001600020549050803414610da3576040517f08c379a0000000000000000000000000000000000000000000000000000000008152600401610d9a9061291c565b60405180910390fd5b6000610dae836108ce565b90508073ffffffffffffffffffffffffffffffffffffffff166108fc349081150290604051600060405180830381858888f19350505050158015610df6573d6000803e3d6000fd5b50505050565b6000600560008473ffffffffffffffffffffffffffffffffffffffff1673ffffffffffffffffffffffffffffffffffffffff16815260200190815260200160002060008373ffffffffffffffffffffffffffffffffffffffff1673ffffffffffffffffffffffffffffffffffffffff16815260200190815260200160002060009054906101000a900460ff16905092915050565b6000600860008373ffffffffffffffffffffffffffffffffffffffff1673ffffffffffffffffffffffffffffffffffffffff168152602001908152602001600020549050919050565b60007f01ffc9a7000000000000000000000000000000000000000000000000000000007bffffffffffffffffffffffffffffffffffffffffffffffffffffffff1916827bffffffffffffffffffffffffffffffffffffffffffffffffffffffff1916149050919050565b60008073ffffffffffffffffffffffffffffffffffffffff166002600084815260200190815260200160002060009054906101000a900473ffffffffffffffffffffffffffffffffffffffff1673ffffffffffffffffffffffffffffffffffffffff1614159050919050565b600033905090565b816004600083815260200190815260200160002060006101000a81548173ffffffffffffffffffffffffffffffffffffffff021916908373ffffffffffffffffffffffffffffffffffffffff160217905550808273ffffffffffffffffffffffffffffffffffffffff1661102a836108ce565b73ffffffffffffffffffffffffffffffffffffffff167f8c5be1e5ebec7d5bd14f71427d1e84f3dd0314c0f7b2291e5b200ac8c7c3b92560405160405180910390a45050565b600061107b82610f43565b6110ba576040517f08c379a00000000000000000000000000000000000000000000000000000000081526004016110b1906129ae565b60405180910390fd5b60006110c5836108ce565b90508073ffffffffffffffffffffffffffffffffffffffff168473ffffffffffffffffffffffffffffffffffffffff16148061110757506111068185610dfc565b5b8061114557508373ffffffffffffffffffffffffffffffffffffffff1661112d8461064a565b73ffffffffffffffffffffffffffffffffffffffff16145b91505092915050565b8273ffffffffffffffffffffffffffffffffffffffff1661116e826108ce565b73ffffffffffffffffffffffffffffffffffffffff16146111c4576040517f08c379a00000000000000000000000000000000000000000000000000000000081526004016111bb90612a40565b60405180910390fd5b600073ffffffffffffffffffffffffffffffffffffffff168273ffffffffffffffffffffffffffffffffffffffff1603611233576040517f08c379a000000000000000000000000000000000000000000000000000000000815260040161122a90612ad2565b60405180910390fd5b61123e8383836118ab565b611249600082610fb7565b6001600360008573ffffffffffffffffffffffffffffffffffffffff1673ffffffffffffffffffffffffffffffffffffffff16815260200190815260200160002060008282546112999190612af2565b925050819055506001600360008473ffffffffffffffffffffffffffffffffffffffff1673ffffffffffffffffffffffffffffffffffffffff16815260200190815260200160002060008282546112f09190612788565b92505081905550816002600083815260200190815260200160002060006101000a81548173ffffffffffffffffffffffffffffffffffffffff021916908373ffffffffffffffffffffffffffffffffffffffff160217905550808273ffffffffffffffffffffffffffffffffffffffff168473ffffffffffffffffffffffffffffffffffffffff167fddf252ad1be2c89b69c2b068fc378daa952ba7f163c4a11628f55a4df523b3ef60405160405180910390a46113af8383836118b0565b505050565b6001816000016000828254019250508190555050565b600081600001549050919050565b600073ffffffffffffffffffffffffffffffffffffffff168273ffffffffffffffffffffffffffffffffffffffff1603611447576040517f08c379a000000000000000000000000000000000000000000000000000000000815260040161143e90612b72565b60405180910390fd5b61145081610f43565b15611490576040517f08c379a000000000000000000000000000000000000000000000000000000000815260040161148790612bde565b60405180910390fd5b61149c600083836118ab565b6001600360008473ffffffffffffffffffffffffffffffffffffffff1673ffffffffffffffffffffffffffffffffffffffff16815260200190815260200160002060008282546114ec9190612788565b92505081905550816002600083815260200190815260200160002060006101000a81548173ffffffffffffffffffffffffffffffffffffffff021916908373ffffffffffffffffffffffffffffffffffffffff160217905550808273ffffffffffffffffffffffffffffffffffffffff16600073ffffffffffffffffffffffffffffffffffffffff167fddf252ad1be2c89b69c2b068fc378daa952ba7f163c4a11628f55a4df523b3ef60405160405180910390a46115ad600083836118b0565b5050565b6115ba82610f43565b6115f9576040517f08c379a00000000000000000000000000000000000000000000000000000000081526004016115f090612c70565b60405180910390fd5b80600660008481526020019081526020016000209080519060200190611620929190611bbf565b505050565b8173ffffffffffffffffffffffffffffffffffffffff168373ffffffffffffffffffffffffffffffffffffffff1603611693576040517f08c379a000000000000000000000000000000000000000000000000000000000815260040161168a90612cdc565b60405180910390fd5b80600560008573ffffffffffffffffffffffffffffffffffffffff1673ffffffffffffffffffffffffffffffffffffffff16815260200190815260200160002060008473ffffffffffffffffffffffffffffffffffffffff1673ffffffffffffffffffffffffffffffffffffffff16815260200190815260200160002060006101000a81548160ff0219169083151502179055508173ffffffffffffffffffffffffffffffffffffffff168373ffffffffffffffffffffffffffffffffffffffff167f17307eab39ab6107e8899845ad3d59bd9653f200f220920489ca2b5937696c31836040516117849190611d16565b60405180910390a3505050565b61179c84848461114e565b6117a8848484846118b5565b6117e7576040517f08c379a00000000000000000000000000000000000000000000000000000000081526004016117de90612d6e565b60405180910390fd5b50505050565b606060405180602001604052806000815250905090565b606061180f82610f43565b61184e576040517f08c379a000000000000000000000000000000000000000000000000000000000815260040161184590612e00565b60405180910390fd5b60006118586117ed565b9050600081511161187857604051806020016040528060008152506118a3565b8061188284611a3c565b6040516020016118939291906128ac565b6040516020818303038152906040525b915050919050565b505050565b505050565b60006118d68473ffffffffffffffffffffffffffffffffffffffff16611b9c565b15611a2f578373ffffffffffffffffffffffffffffffffffffffff1663150b7a026118ff610faf565b8786866040518563ffffffff1660e01b81526004016119219493929190612e75565b6020604051808303816000875af192505050801561195d57506040513d601f19601f8201168201806040525081019061195a9190612ed6565b60015b6119df573d806000811461198d576040519150601f19603f3d011682016040523d82523d6000602084013e611992565b606091505b5060008151036119d7576040517f08c379a00000000000000000000000000000000000000000000000000000000081526004016119ce90612d6e565b60405180910390fd5b805181602001fd5b63150b7a0260e01b7bffffffffffffffffffffffffffffffffffffffffffffffffffffffff1916817bffffffffffffffffffffffffffffffffffffffffffffffffffffffff191614915050611a34565b600190505b949350505050565b606060008203611a83576040518060400160405280600181526020017f30000000000000000000000000000000000000000000000000000000000000008152509050611b97565b600082905060005b60008214611ab5578080611a9e90612f03565b915050600a82611aae9190612f7a565b9150611a8b565b60008167ffffffffffffffff811115611ad157611ad0611fcb565b5b6040519080825280601f01601f191660200182016040528015611b035781602001600182028036833780820191505090505b5090505b60008514611b9057600182611b1c9190612af2565b9150600a85611b2b9190612fab565b6030611b379190612788565b60f81b818381518110611b4d57611b4c612fdc565b5b60200101907effffffffffffffffffffffffffffffffffffffffffffffffffffffffffffff1916908160001a905350600a85611b899190612f7a565b9450611b07565b8093505050505b919050565b6000808273ffffffffffffffffffffffffffffffffffffffff163b119050919050565b828054611bcb906123bc565b90600052602060002090601f016020900481019282611bed5760008555611c34565b82601f10611c0657805160ff1916838001178555611c34565b82800160010185558215611c34579182015b82811115611c33578251825591602001919060010190611c18565b5b509050611c419190611c45565b5090565b5b80821115611c5e576000816000905550600101611c46565b5090565b6000604051905090565b600080fd5b600080fd5b60007fffffffff0000000000000000000000000000000000000000000000000000000082169050919050565b611cab81611c76565b8114611cb657600080fd5b50565b600081359050611cc881611ca2565b92915050565b600060208284031215611ce457611ce3611c6c565b5b6000611cf284828501611cb9565b91505092915050565b60008115159050919050565b611d1081611cfb565b82525050565b6000602082019050611d2b6000830184611d07565b92915050565b600081519050919050565b600082825260208201905092915050565b60005b83811015611d6b578082015181840152602081019050611d50565b83811115611d7a576000848401525b50505050565b6000601f19601f8301169050919050565b6000611d9c82611d31565b611da68185611d3c565b9350611db6818560208601611d4d565b611dbf81611d80565b840191505092915050565b60006020820190508181036000830152611de48184611d91565b905092915050565b6000819050919050565b611dff81611dec565b8114611e0a57600080fd5b50565b600081359050611e1c81611df6565b92915050565b600060208284031215611e3857611e37611c6c565b5b6000611e4684828501611e0d565b91505092915050565b600073ffffffffffffffffffffffffffffffffffffffff82169050919050565b6000611e7a82611e4f565b9050919050565b611e8a81611e6f565b82525050565b6000602082019050611ea56000830184611e81565b92915050565b611eb481611e6f565b8114611ebf57600080fd5b50565b600081359050611ed181611eab565b92915050565b60008060408385031215611eee57611eed611c6c565b5b6000611efc85828601611ec2565b9250506020611f0d85828601611e0d565b9150509250929050565b600060208284031215611f2d57611f2c611c6c565b5b6000611f3b84828501611ec2565b91505092915050565b611f4d81611dec565b82525050565b6000602082019050611f686000830184611f44565b92915050565b600080600060608486031215611f8757611f86611c6c565b5b6000611f9586828701611ec2565b9350506020611fa686828701611ec2565b9250506040611fb786828701611e0d565b9150509250925092565b600080fd5b600080fd5b7f4e487b7100000000000000000000000000000000000000000000000000000000600052604160045260246000fd5b61200382611d80565b810181811067ffffffffffffffff8211171561202257612021611fcb565b5b80604052505050565b6000612035611c62565b90506120418282611ffa565b919050565b600067ffffffffffffffff82111561206157612060611fcb565b5b61206a82611d80565b9050602081019050919050565b82818337600083830152505050565b600061209961209484612046565b61202b565b9050828152602081018484840111156120b5576120b4611fc6565b5b6120c0848285612077565b509392505050565b600082601f8301126120dd576120dc611fc1565b5b81356120ed848260208601612086565b91505092915050565b6000806040838503121561210d5761210c611c6c565b5b600083013567ffffffffffffffff81111561212b5761212a611c71565b5b612137858286016120c8565b925050602061214885828601611e0d565b9150509250929050565b61215b81611cfb565b811461216657600080fd5b50565b60008135905061217881612152565b92915050565b6000806040838503121561219557612194611c6c565b5b60006121a385828601611ec2565b92505060206121b485828601612169565b9150509250929050565b60006121c982611e4f565b9050919050565b6121d9816121be565b81146121e457600080fd5b50565b6000813590506121f6816121d0565b92915050565b60006020828403121561221257612211611c6c565b5b6000612220848285016121e7565b91505092915050565b600067ffffffffffffffff82111561224457612243611fcb565b5b61224d82611d80565b9050602081019050919050565b600061226d61226884612229565b61202b565b90508281526020810184848401111561228957612288611fc6565b5b612294848285612077565b509392505050565b600082601f8301126122b1576122b0611fc1565b5b81356122c184826020860161225a565b91505092915050565b600080600080608085870312156122e4576122e3611c6c565b5b60006122f287828801611ec2565b945050602061230387828801611ec2565b935050604061231487828801611e0d565b925050606085013567ffffffffffffffff81111561233557612334611c71565b5b6123418782880161229c565b91505092959194509250565b6000806040838503121561236457612363611c6c565b5b600061237285828601611ec2565b925050602061238385828601611ec2565b9150509250929050565b7f4e487b7100000000000000000000000000000000000000000000000000000000600052602260045260246000fd5b600060028204905060018216806123d457607f821691505b6020821081036123e7576123e661238d565b5b50919050565b7f4552433732313a20617070726f76656420717565727920666f72206e6f6e657860008201527f697374656e7420746f6b656e0000000000000000000000000000000000000000602082015250565b6000612449602c83611d3c565b9150612454826123ed565b604082019050919050565b600060208201905081810360008301526124788161243c565b9050919050565b7f4552433732313a20617070726f76616c20746f2063757272656e74206f776e6560008201527f7200000000000000000000000000000000000000000000000000000000000000602082015250565b60006124db602183611d3c565b91506124e68261247f565b604082019050919050565b6000602082019050818103600083015261250a816124ce565b9050919050565b7f4552433732313a20617070726f76652063616c6c6572206973206e6f74206f7760008201527f6e6572206e6f7220617070726f76656420666f7220616c6c0000000000000000602082015250565b600061256d603883611d3c565b915061257882612511565b604082019050919050565b6000602082019050818103600083015261259c81612560565b9050919050565b7f4552433732313a207472616e736665722063616c6c6572206973206e6f74206f60008201527f776e6572206e6f7220617070726f766564000000000000000000000000000000602082015250565b60006125ff603183611d3c565b915061260a826125a3565b604082019050919050565b6000602082019050818103600083015261262e816125f2565b9050919050565b7f4552433732313a206f776e657220717565727920666f72206e6f6e657869737460008201527f656e7420746f6b656e0000000000000000000000000000000000000000000000602082015250565b6000612691602983611d3c565b915061269c82612635565b604082019050919050565b600060208201905081810360008301526126c081612684565b9050919050565b7f4552433732313a2062616c616e636520717565727920666f7220746865207a6560008201527f726f206164647265737300000000000000000000000000000000000000000000602082015250565b6000612723602a83611d3c565b915061272e826126c7565b604082019050919050565b6000602082019050818103600083015261275281612716565b9050919050565b7f4e487b7100000000000000000000000000000000000000000000000000000000600052601160045260246000fd5b600061279382611dec565b915061279e83611dec565b9250827fffffffffffffffffffffffffffffffffffffffffffffffffffffffffffffffff038211156127d3576127d2612759565b5b828201905092915050565b7f45524337323155524953746f726167653a2055524920717565727920666f722060008201527f6e6f6e6578697374656e7420746f6b656e000000000000000000000000000000602082015250565b600061283a603183611d3c565b9150612845826127de565b604082019050919050565b600060208201905081810360008301526128698161282d565b9050919050565b600081905092915050565b600061288682611d31565b6128908185612870565b93506128a0818560208601611d4d565b80840191505092915050565b60006128b8828561287b565b91506128c4828461287b565b91508190509392505050565b7f436865636b207072696365000000000000000000000000000000000000000000600082015250565b6000612906600b83611d3c565b9150612911826128d0565b602082019050919050565b60006020820190508181036000830152612935816128f9565b9050919050565b7f4552433732313a206f70657261746f7220717565727920666f72206e6f6e657860008201527f697374656e7420746f6b656e0000000000000000000000000000000000000000602082015250565b6000612998602c83611d3c565b91506129a38261293c565b604082019050919050565b600060208201905081810360008301526129c78161298b565b9050919050565b7f4552433732313a207472616e736665722066726f6d20696e636f72726563742060008201527f6f776e6572000000000000000000000000000000000000000000000000000000602082015250565b6000612a2a602583611d3c565b9150612a35826129ce565b604082019050919050565b60006020820190508181036000830152612a5981612a1d565b9050919050565b7f4552433732313a207472616e7366657220746f20746865207a65726f2061646460008201527f7265737300000000000000000000000000000000000000000000000000000000602082015250565b6000612abc602483611d3c565b9150612ac782612a60565b604082019050919050565b60006020820190508181036000830152612aeb81612aaf565b9050919050565b6000612afd82611dec565b9150612b0883611dec565b925082821015612b1b57612b1a612759565b5b828203905092915050565b7f4552433732313a206d696e7420746f20746865207a65726f2061646472657373600082015250565b6000612b5c602083611d3c565b9150612b6782612b26565b602082019050919050565b60006020820190508181036000830152612b8b81612b4f565b9050919050565b7f4552433732313a20746f6b656e20616c7265616479206d696e74656400000000600082015250565b6000612bc8601c83611d3c565b9150612bd382612b92565b602082019050919050565b60006020820190508181036000830152612bf781612bbb565b9050919050565b7f45524337323155524953746f726167653a2055524920736574206f66206e6f6e60008201527f6578697374656e7420746f6b656e000000000000000000000000000000000000602082015250565b6000612c5a602e83611d3c565b9150612c6582612bfe565b604082019050919050565b60006020820190508181036000830152612c8981612c4d565b9050919050565b7f4552433732313a20617070726f766520746f2063616c6c657200000000000000600082015250565b6000612cc6601983611d3c565b9150612cd182612c90565b602082019050919050565b60006020820190508181036000830152612cf581612cb9565b9050919050565b7f4552433732313a207472616e7366657220746f206e6f6e20455243373231526560008201527f63656976657220696d706c656d656e7465720000000000000000000000000000602082015250565b6000612d58603283611d3c565b9150612d6382612cfc565b604082019050919050565b60006020820190508181036000830152612d8781612d4b565b9050919050565b7f4552433732314d657461646174613a2055524920717565727920666f72206e6f60008201527f6e6578697374656e7420746f6b656e0000000000000000000000000000000000602082015250565b6000612dea602f83611d3c565b9150612df582612d8e565b604082019050919050565b60006020820190508181036000830152612e1981612ddd565b9050919050565b600081519050919050565b600082825260208201905092915050565b6000612e4782612e20565b612e518185612e2b565b9350612e61818560208601611d4d565b612e6a81611d80565b840191505092915050565b6000608082019050612e8a6000830187611e81565b612e976020830186611e81565b612ea46040830185611f44565b8181036060830152612eb68184612e3c565b905095945050505050565b600081519050612ed081611ca2565b92915050565b600060208284031215612eec57612eeb611c6c565b5b6000612efa84828501612ec1565b91505092915050565b6000612f0e82611dec565b91507fffffffffffffffffffffffffffffffffffffffffffffffffffffffffffffffff8203612f4057612f3f612759565b5b600182019050919050565b7f4e487b7100000000000000000000000000000000000000000000000000000000600052601260045260246000fd5b6000612f8582611dec565b9150612f9083611dec565b925082612fa057612f9f612f4b565b5b828204905092915050565b6000612fb682611dec565b9150612fc183611dec565b925082612fd157612fd0612f4b565b5b828206905092915050565b7f4e487b7100000000000000000000000000000000000000000000000000000000600052603260045260246000fdfea2646970667358221220a0b34c51b018face712bbbf669c39d5845f1f46cb7af73c2f22e51b9e1c3c4c064736f6c634300080d0033",
  "immutableReferences": {},
  "source": "// SPDX-License-Identifier: MIT\npragma solidity ^0.8.0;\n\nimport \"@openzeppelin/contracts/token/ERC721/ERC721.sol\";\nimport \"@openzeppelin/contracts/token/ERC721/extensions/ERC721URIStorage.sol\";\nimport \"@openzeppelin/contracts/utils/Counters.sol\";\n\ncontract StoreListings is ERC721URIStorage {\n    using Counters for Counters.Counter;\n    Counters.Counter private _tokenIds;\n\n    constructor() ERC721(\"StoreListing\", \"ITM\") {}\n\n    mapping(address => uint256) public tips;\n    mapping(uint256 => uint256) public prices;\n    function createListing(string memory tokenURI, uint256 price) public\nreturns (uint256)\n    {\n        _tokenIds.increment();\n\n        uint256 newItemId = _tokenIds.current();\n        _mint(msg.sender, newItemId);\n        prices[newItemId] = price;\n        _setTokenURI(newItemId, tokenURI);\n\n        return newItemId;\n    }\n\n    function buy(uint256 tokenId) payable public{\n             uint256 tokenprice = prices[tokenId];\n             require(msg.value == tokenprice, \"Check price\");\n             //Get owner of items address\n             address payable to = payable(ownerOf(tokenId));\n             to.transfer(msg.value);\n    }\n\n    function tip(address payable to) payable public{\n             to.transfer(msg.value);\n             tips[to] += msg.value;\n    }\n\n    function tipScore(address userAddress) public returns (uint256) {\n             return tips[userAddress];\n    }\n}\n",
  "sourcePath": "/home/fulton/code/crypto-market/contracts/market.sol",
  "compiler": {
    "name": "solc",
    "version": "0.8.13+commit.abaa5c0e.Emscripten.clang"
  },
  "schemaVersion": "3.4.7",
  "updatedAt": "2022-04-30T15:00:28.007Z",
  "devdoc": {
    "kind": "dev",
    "methods": {
      "approve(address,uint256)": {
        "details": "See {IERC721-approve}."
      },
      "balanceOf(address)": {
        "details": "See {IERC721-balanceOf}."
      },
      "getApproved(uint256)": {
        "details": "See {IERC721-getApproved}."
      },
      "isApprovedForAll(address,address)": {
        "details": "See {IERC721-isApprovedForAll}."
      },
      "name()": {
        "details": "See {IERC721Metadata-name}."
      },
      "ownerOf(uint256)": {
        "details": "See {IERC721-ownerOf}."
      },
      "safeTransferFrom(address,address,uint256)": {
        "details": "See {IERC721-safeTransferFrom}."
      },
      "safeTransferFrom(address,address,uint256,bytes)": {
        "details": "See {IERC721-safeTransferFrom}."
      },
      "setApprovalForAll(address,bool)": {
        "details": "See {IERC721-setApprovalForAll}."
      },
      "supportsInterface(bytes4)": {
        "details": "See {IERC165-supportsInterface}."
      },
      "symbol()": {
        "details": "See {IERC721Metadata-symbol}."
      },
      "tokenURI(uint256)": {
        "details": "See {IERC721Metadata-tokenURI}."
      },
      "transferFrom(address,address,uint256)": {
        "details": "See {IERC721-transferFrom}."
      }
    },
    "version": 1
  },
  "userdoc": {
    "kind": "user",
    "methods": {},
    "version": 1
  }
}