{
  "contractName": "StoreListings",
  "abi": [
    {
      "inputs": [],
      "stateMutability": "nonpayable",
      "type": "constructor"
    },
    {
      "anonymous": false,
      "inputs": [
        {
          "indexed": true,
          "internalType": "address",
          "name": "owner",
          "type": "address"
        },
        {
          "indexed": true,
          "internalType": "address",
          "name": "approved",
          "type": "address"
        },
        {
          "indexed": true,
          "internalType": "uint256",
          "name": "tokenId",
          "type": "uint256"
        }
      ],
      "name": "Approval",
      "type": "event"
    },
    {
      "anonymous": false,
      "inputs": [
        {
          "indexed": true,
          "internalType": "address",
          "name": "owner",
          "type": "address"
        },
        {
          "indexed": true,
          "internalType": "address",
          "name": "operator",
          "type": "address"
        },
        {
          "indexed": false,
          "internalType": "bool",
          "name": "approved",
          "type": "bool"
        }
      ],
      "name": "ApprovalForAll",
      "type": "event"
    },
    {
      "anonymous": false,
      "inputs": [
        {
          "indexed": true,
          "internalType": "address",
          "name": "from",
          "type": "address"
        },
        {
          "indexed": true,
          "internalType": "address",
          "name": "to",
          "type": "address"
        },
        {
          "indexed": true,
          "internalType": "uint256",
          "name": "tokenId",
          "type": "uint256"
        }
      ],
      "name": "Transfer",
      "type": "event"
    },
    {
      "inputs": [
        {
          "internalType": "address",
          "name": "to",
          "type": "address"
        },
        {
          "internalType": "uint256",
          "name": "tokenId",
          "type": "uint256"
        }
      ],
      "name": "approve",
      "outputs": [],
      "stateMutability": "nonpayable",
      "type": "function"
    },
    {
      "inputs": [
        {
          "internalType": "address",
          "name": "owner",
          "type": "address"
        }
      ],
      "name": "balanceOf",
      "outputs": [
        {
          "internalType": "uint256",
          "name": "",
          "type": "uint256"
        }
      ],
      "stateMutability": "view",
      "type": "function"
    },
    {
      "inputs": [
        {
          "internalType": "uint256",
          "name": "tokenId",
          "type": "uint256"
        }
      ],
      "name": "getApproved",
      "outputs": [
        {
          "internalType": "address",
          "name": "",
          "type": "address"
        }
      ],
      "stateMutability": "view",
      "type": "function"
    },
    {
      "inputs": [
        {
          "internalType": "address",
          "name": "owner",
          "type": "address"
        },
        {
          "internalType": "address",
          "name": "operator",
          "type": "address"
        }
      ],
      "name": "isApprovedForAll",
      "outputs": [
        {
          "internalType": "bool",
          "name": "",
          "type": "bool"
        }
      ],
      "stateMutability": "view",
      "type": "function"
    },
    {
      "inputs": [],
      "name": "name",
      "outputs": [
        {
          "internalType": "string",
          "name": "",
          "type": "string"
        }
      ],
      "stateMutability": "view",
      "type": "function"
    },
    {
      "inputs": [
        {
          "internalType": "uint256",
          "name": "tokenId",
          "type": "uint256"
        }
      ],
      "name": "ownerOf",
      "outputs": [
        {
          "internalType": "address",
          "name": "",
          "type": "address"
        }
      ],
      "stateMutability": "view",
      "type": "function"
    },
    {
      "inputs": [
        {
          "internalType": "uint256",
          "name": "",
          "type": "uint256"
        }
      ],
      "name": "prices",
      "outputs": [
        {
          "internalType": "uint256",
          "name": "",
          "type": "uint256"
        }
      ],
      "stateMutability": "view",
      "type": "function"
    },
    {
      "inputs": [
        {
          "internalType": "address",
          "name": "from",
          "type": "address"
        },
        {
          "internalType": "address",
          "name": "to",
          "type": "address"
        },
        {
          "internalType": "uint256",
          "name": "tokenId",
          "type": "uint256"
        }
      ],
      "name": "safeTransferFrom",
      "outputs": [],
      "stateMutability": "nonpayable",
      "type": "function"
    },
    {
      "inputs": [
        {
          "internalType": "address",
          "name": "from",
          "type": "address"
        },
        {
          "internalType": "address",
          "name": "to",
          "type": "address"
        },
        {
          "internalType": "uint256",
          "name": "tokenId",
          "type": "uint256"
        },
        {
          "internalType": "bytes",
          "name": "_data",
          "type": "bytes"
        }
      ],
      "name": "safeTransferFrom",
      "outputs": [],
      "stateMutability": "nonpayable",
      "type": "function"
    },
    {
      "inputs": [
        {
          "internalType": "address",
          "name": "operator",
          "type": "address"
        },
        {
          "internalType": "bool",
          "name": "approved",
          "type": "bool"
        }
      ],
      "name": "setApprovalForAll",
      "outputs": [],
      "stateMutability": "nonpayable",
      "type": "function"
    },
    {
      "inputs": [
        {
          "internalType": "bytes4",
          "name": "interfaceId",
          "type": "bytes4"
        }
      ],
      "name": "supportsInterface",
      "outputs": [
        {
          "internalType": "bool",
          "name": "",
          "type": "bool"
        }
      ],
      "stateMutability": "view",
      "type": "function"
    },
    {
      "inputs": [],
      "name": "symbol",
      "outputs": [
        {
          "internalType": "string",
          "name": "",
          "type": "string"
        }
      ],
      "stateMutability": "view",
      "type": "function"
    },
    {
      "inputs": [
        {
          "internalType": "address",
          "name": "",
          "type": "address"
        }
      ],
      "name": "tips",
      "outputs": [
        {
          "internalType": "uint256",
          "name": "",
          "type": "uint256"
        }
      ],
      "stateMutability": "view",
      "type": "function"
    },
    {
      "inputs": [
        {
          "internalType": "uint256",
          "name": "tokenId",
          "type": "uint256"
        }
      ],
      "name": "tokenURI",
      "outputs": [
        {
          "internalType": "string",
          "name": "",
          "type": "string"
        }
      ],
      "stateMutability": "view",
      "type": "function"
    },
    {
      "inputs": [
        {
          "internalType": "address",
          "name": "from",
          "type": "address"
        },
        {
          "internalType": "address",
          "name": "to",
          "type": "address"
        },
        {
          "internalType": "uint256",
          "name": "tokenId",
          "type": "uint256"
        }
      ],
      "name": "transferFrom",
      "outputs": [],
      "stateMutability": "nonpayable",
      "type": "function"
    },
    {
      "inputs": [
        {
          "internalType": "address",
          "name": "lister",
          "type": "address"
        },
        {
          "internalType": "string",
          "name": "tokenURI",
          "type": "string"
        },
        {
          "internalType": "uint256",
          "name": "price",
          "type": "uint256"
        }
      ],
      "name": "createListing",
      "outputs": [
        {
          "internalType": "uint256",
          "name": "",
          "type": "uint256"
        }
      ],
      "stateMutability": "nonpayable",
      "type": "function"
    },
    {
      "inputs": [
        {
          "internalType": "uint256",
          "name": "tokenId",
          "type": "uint256"
        }
      ],
      "name": "buy",
      "outputs": [],
      "stateMutability": "payable",
      "type": "function"
    },
    {
      "inputs": [
        {
          "internalType": "address payable",
          "name": "to",
          "type": "address"
        }
      ],
      "name": "tip",
      "outputs": [],
      "stateMutability": "payable",
      "type": "function"
    },
    {
      "inputs": [
        {
          "internalType": "address",
          "name": "userAddress",
          "type": "address"
        }
      ],
      "name": "tipScore",
      "outputs": [
        {
          "internalType": "uint256",
          "name": "",
          "type": "uint256"
        }
      ],
      "stateMutability": "nonpayable",
      "type": "function"
    }
  ],
  "bytecode": "0x60806040523480156200001157600080fd5b506040518060400160405280600c81526020017f53746f72654c697374696e6700000000000000000000000000000000000000008152506040518060400160405280600381526020017f49544d0000000000000000000000000000000000000000000000000000000000815250816000908051906020019062000096929190620000b8565b508060019080519060200190620000af929190620000b8565b505050620001cc565b828054620000c69062000197565b90600052602060002090601f016020900481019282620000ea576000855562000136565b82601f106200010557805160ff191683800117855562000136565b8280016001018555821562000136579182015b828111156200013557825182559160200191906001019062000118565b5b50905062000145919062000149565b5090565b5b80821115620001645760008160009055506001016200014a565b5090565b7f4e487b7100000000000000000000000000000000000000000000000000000000600052602260045260246000fd5b60006002820490506001821680620001b057607f821691505b602082108103620001c657620001c562000168565b5b50919050565b61305580620001dc6000396000f3fe6080604052600436106101145760003560e01c806370a08231116100a0578063bc31c1c111610064578063bc31c1c1146103c6578063c87b56dd14610403578063d96a094a14610440578063e985e9c51461045c578063ecc055bb1461049957610114565b806370a08231146102f057806395d89b411461032d578063a22cb46514610358578063ac733ef714610381578063b88d4fde1461039d57610114565b80631b21bc30116100e75780631b21bc30146101e757806323b872dd1461022457806342842e0e1461024d578063525d9ea1146102765780636352211e146102b357610114565b806301ffc9a71461011957806306fdde0314610156578063081812fc14610181578063095ea7b3146101be575b600080fd5b34801561012557600080fd5b50610140600480360381019061013b9190611ccf565b6104d6565b60405161014d9190611d17565b60405180910390f35b34801561016257600080fd5b5061016b6105b8565b6040516101789190611dcb565b60405180910390f35b34801561018d57600080fd5b506101a860048036038101906101a39190611e23565b61064a565b6040516101b59190611e91565b60405180910390f35b3480156101ca57600080fd5b506101e560048036038101906101e09190611ed8565b6106cf565b005b3480156101f357600080fd5b5061020e60048036038101906102099190611f18565b6107e6565b60405161021b9190611f54565b60405180910390f35b34801561023057600080fd5b5061024b60048036038101906102469190611f6f565b6107fe565b005b34801561025957600080fd5b50610274600480360381019061026f9190611f6f565b61085e565b005b34801561028257600080fd5b5061029d600480360381019061029891906120f7565b61087e565b6040516102aa9190611f54565b60405180910390f35b3480156102bf57600080fd5b506102da60048036038101906102d59190611e23565b6108cf565b6040516102e79190611e91565b60405180910390f35b3480156102fc57600080fd5b5061031760048036038101906103129190611f18565b610980565b6040516103249190611f54565b60405180910390f35b34801561033957600080fd5b50610342610a37565b60405161034f9190611dcb565b60405180910390f35b34801561036457600080fd5b5061037f600480360381019061037a9190612192565b610ac9565b005b61039b60048036038101906103969190612210565b610adf565b005b3480156103a957600080fd5b506103c460048036038101906103bf91906122de565b610b7f565b005b3480156103d257600080fd5b506103ed60048036038101906103e89190611e23565b610be1565b6040516103fa9190611f54565b60405180910390f35b34801561040f57600080fd5b5061042a60048036038101906104259190611e23565b610bf9565b6040516104379190611dcb565b60405180910390f35b61045a60048036038101906104559190611e23565b610d4a565b005b34801561046857600080fd5b50610483600480360381019061047e9190612361565b610dfd565b6040516104909190611d17565b60405180910390f35b3480156104a557600080fd5b506104c060048036038101906104bb9190611f18565b610e91565b6040516104cd9190611f54565b60405180910390f35b60007f80ac58cd000000000000000000000000000000000000000000000000000000007bffffffffffffffffffffffffffffffffffffffffffffffffffffffff1916827bffffffffffffffffffffffffffffffffffffffffffffffffffffffff191614806105a157507f5b5e139f000000000000000000000000000000000000000000000000000000007bffffffffffffffffffffffffffffffffffffffffffffffffffffffff1916827bffffffffffffffffffffffffffffffffffffffffffffffffffffffff1916145b806105b157506105b082610eda565b5b9050919050565b6060600080546105c7906123d0565b80601f01602080910402602001604051908101604052809291908181526020018280546105f3906123d0565b80156106405780601f1061061557610100808354040283529160200191610640565b820191906000526020600020905b81548152906001019060200180831161062357829003601f168201915b5050505050905090565b600061065582610f44565b610694576040517f08c379a000000000000000000000000000000000000000000000000000000000815260040161068b90612473565b60405180910390fd5b6004600083815260200190815260200160002060009054906101000a900473ffffffffffffffffffffffffffffffffffffffff169050919050565b60006106da826108cf565b90508073ffffffffffffffffffffffffffffffffffffffff168373ffffffffffffffffffffffffffffffffffffffff160361074a576040517f08c379a000000000000000000000000000000000000000000000000000000000815260040161074190612505565b60405180910390fd5b8073ffffffffffffffffffffffffffffffffffffffff16610769610fb0565b73ffffffffffffffffffffffffffffffffffffffff161480610798575061079781610792610fb0565b610dfd565b5b6107d7576040517f08c379a00000000000000000000000000000000000000000000000000000000081526004016107ce90612597565b60405180910390fd5b6107e18383610fb8565b505050565b60086020528060005260406000206000915090505481565b61080f610809610fb0565b82611071565b61084e576040517f08c379a000000000000000000000000000000000000000000000000000000000815260040161084590612629565b60405180910390fd5b61085983838361114f565b505050565b61087983838360405180602001604052806000815250610b7f565b505050565b600061088a60076113b5565b600061089660076113cb565b90506108a285826113d9565b8260096000838152602001908152602001600020819055506108c481856115b2565b809150509392505050565b6000806002600084815260200190815260200160002060009054906101000a900473ffffffffffffffffffffffffffffffffffffffff169050600073ffffffffffffffffffffffffffffffffffffffff168173ffffffffffffffffffffffffffffffffffffffff1603610977576040517f08c379a000000000000000000000000000000000000000000000000000000000815260040161096e906126bb565b60405180910390fd5b80915050919050565b60008073ffffffffffffffffffffffffffffffffffffffff168273ffffffffffffffffffffffffffffffffffffffff16036109f0576040517f08c379a00000000000000000000000000000000000000000000000000000000081526004016109e79061274d565b60405180910390fd5b600360008373ffffffffffffffffffffffffffffffffffffffff1673ffffffffffffffffffffffffffffffffffffffff168152602001908152602001600020549050919050565b606060018054610a46906123d0565b80601f0160208091040260200160405190810160405280929190818152602001828054610a72906123d0565b8015610abf5780601f10610a9457610100808354040283529160200191610abf565b820191906000526020600020905b815481529060010190602001808311610aa257829003601f168201915b5050505050905090565b610adb610ad4610fb0565b8383611626565b5050565b8073ffffffffffffffffffffffffffffffffffffffff166108fc349081150290604051600060405180830381858888f19350505050158015610b25573d6000803e3d6000fd5b5034600860008373ffffffffffffffffffffffffffffffffffffffff1673ffffffffffffffffffffffffffffffffffffffff1681526020019081526020016000206000828254610b75919061279c565b9250508190555050565b610b90610b8a610fb0565b83611071565b610bcf576040517f08c379a0000000000000000000000000000000000000000000000000000000008152600401610bc690612629565b60405180910390fd5b610bdb84848484611792565b50505050565b60096020528060005260406000206000915090505481565b6060610c0482610f44565b610c43576040517f08c379a0000000000000000000000000000000000000000000000000000000008152600401610c3a90612864565b60405180910390fd5b6000600660008481526020019081526020016000208054610c63906123d0565b80601f0160208091040260200160405190810160405280929190818152602001828054610c8f906123d0565b8015610cdc5780601f10610cb157610100808354040283529160200191610cdc565b820191906000526020600020905b815481529060010190602001808311610cbf57829003601f168201915b505050505090506000610ced6117ee565b90506000815103610d02578192505050610d45565b600082511115610d37578082604051602001610d1f9291906128c0565b60405160208183030381529060405292505050610d45565b610d4084611805565b925050505b919050565b600060096000838152602001908152602001600020549050803414610da4576040517f08c379a0000000000000000000000000000000000000000000000000000000008152600401610d9b90612930565b60405180910390fd5b6000610daf836108cf565b90508073ffffffffffffffffffffffffffffffffffffffff166108fc349081150290604051600060405180830381858888f19350505050158015610df7573d6000803e3d6000fd5b50505050565b6000600560008473ffffffffffffffffffffffffffffffffffffffff1673ffffffffffffffffffffffffffffffffffffffff16815260200190815260200160002060008373ffffffffffffffffffffffffffffffffffffffff1673ffffffffffffffffffffffffffffffffffffffff16815260200190815260200160002060009054906101000a900460ff16905092915050565b6000600860008373ffffffffffffffffffffffffffffffffffffffff1673ffffffffffffffffffffffffffffffffffffffff168152602001908152602001600020549050919050565b60007f01ffc9a7000000000000000000000000000000000000000000000000000000007bffffffffffffffffffffffffffffffffffffffffffffffffffffffff1916827bffffffffffffffffffffffffffffffffffffffffffffffffffffffff1916149050919050565b60008073ffffffffffffffffffffffffffffffffffffffff166002600084815260200190815260200160002060009054906101000a900473ffffffffffffffffffffffffffffffffffffffff1673ffffffffffffffffffffffffffffffffffffffff1614159050919050565b600033905090565b816004600083815260200190815260200160002060006101000a81548173ffffffffffffffffffffffffffffffffffffffff021916908373ffffffffffffffffffffffffffffffffffffffff160217905550808273ffffffffffffffffffffffffffffffffffffffff1661102b836108cf565b73ffffffffffffffffffffffffffffffffffffffff167f8c5be1e5ebec7d5bd14f71427d1e84f3dd0314c0f7b2291e5b200ac8c7c3b92560405160405180910390a45050565b600061107c82610f44565b6110bb576040517f08c379a00000000000000000000000000000000000000000000000000000000081526004016110b2906129c2565b60405180910390fd5b60006110c6836108cf565b90508073ffffffffffffffffffffffffffffffffffffffff168473ffffffffffffffffffffffffffffffffffffffff16148061110857506111078185610dfd565b5b8061114657508373ffffffffffffffffffffffffffffffffffffffff1661112e8461064a565b73ffffffffffffffffffffffffffffffffffffffff16145b91505092915050565b8273ffffffffffffffffffffffffffffffffffffffff1661116f826108cf565b73ffffffffffffffffffffffffffffffffffffffff16146111c5576040517f08c379a00000000000000000000000000000000000000000000000000000000081526004016111bc90612a54565b60405180910390fd5b600073ffffffffffffffffffffffffffffffffffffffff168273ffffffffffffffffffffffffffffffffffffffff1603611234576040517f08c379a000000000000000000000000000000000000000000000000000000000815260040161122b90612ae6565b60405180910390fd5b61123f8383836118ac565b61124a600082610fb8565b6001600360008573ffffffffffffffffffffffffffffffffffffffff1673ffffffffffffffffffffffffffffffffffffffff168152602001908152602001600020600082825461129a9190612b06565b925050819055506001600360008473ffffffffffffffffffffffffffffffffffffffff1673ffffffffffffffffffffffffffffffffffffffff16815260200190815260200160002060008282546112f1919061279c565b92505081905550816002600083815260200190815260200160002060006101000a81548173ffffffffffffffffffffffffffffffffffffffff021916908373ffffffffffffffffffffffffffffffffffffffff160217905550808273ffffffffffffffffffffffffffffffffffffffff168473ffffffffffffffffffffffffffffffffffffffff167fddf252ad1be2c89b69c2b068fc378daa952ba7f163c4a11628f55a4df523b3ef60405160405180910390a46113b08383836118b1565b505050565b6001816000016000828254019250508190555050565b600081600001549050919050565b600073ffffffffffffffffffffffffffffffffffffffff168273ffffffffffffffffffffffffffffffffffffffff1603611448576040517f08c379a000000000000000000000000000000000000000000000000000000000815260040161143f90612b86565b60405180910390fd5b61145181610f44565b15611491576040517f08c379a000000000000000000000000000000000000000000000000000000000815260040161148890612bf2565b60405180910390fd5b61149d600083836118ac565b6001600360008473ffffffffffffffffffffffffffffffffffffffff1673ffffffffffffffffffffffffffffffffffffffff16815260200190815260200160002060008282546114ed919061279c565b92505081905550816002600083815260200190815260200160002060006101000a81548173ffffffffffffffffffffffffffffffffffffffff021916908373ffffffffffffffffffffffffffffffffffffffff160217905550808273ffffffffffffffffffffffffffffffffffffffff16600073ffffffffffffffffffffffffffffffffffffffff167fddf252ad1be2c89b69c2b068fc378daa952ba7f163c4a11628f55a4df523b3ef60405160405180910390a46115ae600083836118b1565b5050565b6115bb82610f44565b6115fa576040517f08c379a00000000000000000000000000000000000000000000000000000000081526004016115f190612c84565b60405180910390fd5b80600660008481526020019081526020016000209080519060200190611621929190611bc0565b505050565b8173ffffffffffffffffffffffffffffffffffffffff168373ffffffffffffffffffffffffffffffffffffffff1603611694576040517f08c379a000000000000000000000000000000000000000000000000000000000815260040161168b90612cf0565b60405180910390fd5b80600560008573ffffffffffffffffffffffffffffffffffffffff1673ffffffffffffffffffffffffffffffffffffffff16815260200190815260200160002060008473ffffffffffffffffffffffffffffffffffffffff1673ffffffffffffffffffffffffffffffffffffffff16815260200190815260200160002060006101000a81548160ff0219169083151502179055508173ffffffffffffffffffffffffffffffffffffffff168373ffffffffffffffffffffffffffffffffffffffff167f17307eab39ab6107e8899845ad3d59bd9653f200f220920489ca2b5937696c31836040516117859190611d17565b60405180910390a3505050565b61179d84848461114f565b6117a9848484846118b6565b6117e8576040517f08c379a00000000000000000000000000000000000000000000000000000000081526004016117df90612d82565b60405180910390fd5b50505050565b606060405180602001604052806000815250905090565b606061181082610f44565b61184f576040517f08c379a000000000000000000000000000000000000000000000000000000000815260040161184690612e14565b60405180910390fd5b60006118596117ee565b9050600081511161187957604051806020016040528060008152506118a4565b8061188384611a3d565b6040516020016118949291906128c0565b6040516020818303038152906040525b915050919050565b505050565b505050565b60006118d78473ffffffffffffffffffffffffffffffffffffffff16611b9d565b15611a30578373ffffffffffffffffffffffffffffffffffffffff1663150b7a02611900610fb0565b8786866040518563ffffffff1660e01b81526004016119229493929190612e89565b6020604051808303816000875af192505050801561195e57506040513d601f19601f8201168201806040525081019061195b9190612eea565b60015b6119e0573d806000811461198e576040519150601f19603f3d011682016040523d82523d6000602084013e611993565b606091505b5060008151036119d8576040517f08c379a00000000000000000000000000000000000000000000000000000000081526004016119cf90612d82565b60405180910390fd5b805181602001fd5b63150b7a0260e01b7bffffffffffffffffffffffffffffffffffffffffffffffffffffffff1916817bffffffffffffffffffffffffffffffffffffffffffffffffffffffff191614915050611a35565b600190505b949350505050565b606060008203611a84576040518060400160405280600181526020017f30000000000000000000000000000000000000000000000000000000000000008152509050611b98565b600082905060005b60008214611ab6578080611a9f90612f17565b915050600a82611aaf9190612f8e565b9150611a8c565b60008167ffffffffffffffff811115611ad257611ad1611fcc565b5b6040519080825280601f01601f191660200182016040528015611b045781602001600182028036833780820191505090505b5090505b60008514611b9157600182611b1d9190612b06565b9150600a85611b2c9190612fbf565b6030611b38919061279c565b60f81b818381518110611b4e57611b4d612ff0565b5b60200101907effffffffffffffffffffffffffffffffffffffffffffffffffffffffffffff1916908160001a905350600a85611b8a9190612f8e565b9450611b08565b8093505050505b919050565b6000808273ffffffffffffffffffffffffffffffffffffffff163b119050919050565b828054611bcc906123d0565b90600052602060002090601f016020900481019282611bee5760008555611c35565b82601f10611c0757805160ff1916838001178555611c35565b82800160010185558215611c35579182015b82811115611c34578251825591602001919060010190611c19565b5b509050611c429190611c46565b5090565b5b80821115611c5f576000816000905550600101611c47565b5090565b6000604051905090565b600080fd5b600080fd5b60007fffffffff0000000000000000000000000000000000000000000000000000000082169050919050565b611cac81611c77565b8114611cb757600080fd5b50565b600081359050611cc981611ca3565b92915050565b600060208284031215611ce557611ce4611c6d565b5b6000611cf384828501611cba565b91505092915050565b60008115159050919050565b611d1181611cfc565b82525050565b6000602082019050611d2c6000830184611d08565b92915050565b600081519050919050565b600082825260208201905092915050565b60005b83811015611d6c578082015181840152602081019050611d51565b83811115611d7b576000848401525b50505050565b6000601f19601f8301169050919050565b6000611d9d82611d32565b611da78185611d3d565b9350611db7818560208601611d4e565b611dc081611d81565b840191505092915050565b60006020820190508181036000830152611de58184611d92565b905092915050565b6000819050919050565b611e0081611ded565b8114611e0b57600080fd5b50565b600081359050611e1d81611df7565b92915050565b600060208284031215611e3957611e38611c6d565b5b6000611e4784828501611e0e565b91505092915050565b600073ffffffffffffffffffffffffffffffffffffffff82169050919050565b6000611e7b82611e50565b9050919050565b611e8b81611e70565b82525050565b6000602082019050611ea66000830184611e82565b92915050565b611eb581611e70565b8114611ec057600080fd5b50565b600081359050611ed281611eac565b92915050565b60008060408385031215611eef57611eee611c6d565b5b6000611efd85828601611ec3565b9250506020611f0e85828601611e0e565b9150509250929050565b600060208284031215611f2e57611f2d611c6d565b5b6000611f3c84828501611ec3565b91505092915050565b611f4e81611ded565b82525050565b6000602082019050611f696000830184611f45565b92915050565b600080600060608486031215611f8857611f87611c6d565b5b6000611f9686828701611ec3565b9350506020611fa786828701611ec3565b9250506040611fb886828701611e0e565b9150509250925092565b600080fd5b600080fd5b7f4e487b7100000000000000000000000000000000000000000000000000000000600052604160045260246000fd5b61200482611d81565b810181811067ffffffffffffffff8211171561202357612022611fcc565b5b80604052505050565b6000612036611c63565b90506120428282611ffb565b919050565b600067ffffffffffffffff82111561206257612061611fcc565b5b61206b82611d81565b9050602081019050919050565b82818337600083830152505050565b600061209a61209584612047565b61202c565b9050828152602081018484840111156120b6576120b5611fc7565b5b6120c1848285612078565b509392505050565b600082601f8301126120de576120dd611fc2565b5b81356120ee848260208601612087565b91505092915050565b6000806000606084860312156121105761210f611c6d565b5b600061211e86828701611ec3565b935050602084013567ffffffffffffffff81111561213f5761213e611c72565b5b61214b868287016120c9565b925050604061215c86828701611e0e565b9150509250925092565b61216f81611cfc565b811461217a57600080fd5b50565b60008135905061218c81612166565b92915050565b600080604083850312156121a9576121a8611c6d565b5b60006121b785828601611ec3565b92505060206121c88582860161217d565b9150509250929050565b60006121dd82611e50565b9050919050565b6121ed816121d2565b81146121f857600080fd5b50565b60008135905061220a816121e4565b92915050565b60006020828403121561222657612225611c6d565b5b6000612234848285016121fb565b91505092915050565b600067ffffffffffffffff82111561225857612257611fcc565b5b61226182611d81565b9050602081019050919050565b600061228161227c8461223d565b61202c565b90508281526020810184848401111561229d5761229c611fc7565b5b6122a8848285612078565b509392505050565b600082601f8301126122c5576122c4611fc2565b5b81356122d584826020860161226e565b91505092915050565b600080600080608085870312156122f8576122f7611c6d565b5b600061230687828801611ec3565b945050602061231787828801611ec3565b935050604061232887828801611e0e565b925050606085013567ffffffffffffffff81111561234957612348611c72565b5b612355878288016122b0565b91505092959194509250565b6000806040838503121561237857612377611c6d565b5b600061238685828601611ec3565b925050602061239785828601611ec3565b9150509250929050565b7f4e487b7100000000000000000000000000000000000000000000000000000000600052602260045260246000fd5b600060028204905060018216806123e857607f821691505b6020821081036123fb576123fa6123a1565b5b50919050565b7f4552433732313a20617070726f76656420717565727920666f72206e6f6e657860008201527f697374656e7420746f6b656e0000000000000000000000000000000000000000602082015250565b600061245d602c83611d3d565b915061246882612401565b604082019050919050565b6000602082019050818103600083015261248c81612450565b9050919050565b7f4552433732313a20617070726f76616c20746f2063757272656e74206f776e6560008201527f7200000000000000000000000000000000000000000000000000000000000000602082015250565b60006124ef602183611d3d565b91506124fa82612493565b604082019050919050565b6000602082019050818103600083015261251e816124e2565b9050919050565b7f4552433732313a20617070726f76652063616c6c6572206973206e6f74206f7760008201527f6e6572206e6f7220617070726f76656420666f7220616c6c0000000000000000602082015250565b6000612581603883611d3d565b915061258c82612525565b604082019050919050565b600060208201905081810360008301526125b081612574565b9050919050565b7f4552433732313a207472616e736665722063616c6c6572206973206e6f74206f60008201527f776e6572206e6f7220617070726f766564000000000000000000000000000000602082015250565b6000612613603183611d3d565b915061261e826125b7565b604082019050919050565b6000602082019050818103600083015261264281612606565b9050919050565b7f4552433732313a206f776e657220717565727920666f72206e6f6e657869737460008201527f656e7420746f6b656e0000000000000000000000000000000000000000000000602082015250565b60006126a5602983611d3d565b91506126b082612649565b604082019050919050565b600060208201905081810360008301526126d481612698565b9050919050565b7f4552433732313a2062616c616e636520717565727920666f7220746865207a6560008201527f726f206164647265737300000000000000000000000000000000000000000000602082015250565b6000612737602a83611d3d565b9150612742826126db565b604082019050919050565b600060208201905081810360008301526127668161272a565b9050919050565b7f4e487b7100000000000000000000000000000000000000000000000000000000600052601160045260246000fd5b60006127a782611ded565b91506127b283611ded565b9250827fffffffffffffffffffffffffffffffffffffffffffffffffffffffffffffffff038211156127e7576127e661276d565b5b828201905092915050565b7f45524337323155524953746f726167653a2055524920717565727920666f722060008201527f6e6f6e6578697374656e7420746f6b656e000000000000000000000000000000602082015250565b600061284e603183611d3d565b9150612859826127f2565b604082019050919050565b6000602082019050818103600083015261287d81612841565b9050919050565b600081905092915050565b600061289a82611d32565b6128a48185612884565b93506128b4818560208601611d4e565b80840191505092915050565b60006128cc828561288f565b91506128d8828461288f565b91508190509392505050565b7f436865636b207072696365000000000000000000000000000000000000000000600082015250565b600061291a600b83611d3d565b9150612925826128e4565b602082019050919050565b600060208201905081810360008301526129498161290d565b9050919050565b7f4552433732313a206f70657261746f7220717565727920666f72206e6f6e657860008201527f697374656e7420746f6b656e0000000000000000000000000000000000000000602082015250565b60006129ac602c83611d3d565b91506129b782612950565b604082019050919050565b600060208201905081810360008301526129db8161299f565b9050919050565b7f4552433732313a207472616e736665722066726f6d20696e636f72726563742060008201527f6f776e6572000000000000000000000000000000000000000000000000000000602082015250565b6000612a3e602583611d3d565b9150612a49826129e2565b604082019050919050565b60006020820190508181036000830152612a6d81612a31565b9050919050565b7f4552433732313a207472616e7366657220746f20746865207a65726f2061646460008201527f7265737300000000000000000000000000000000000000000000000000000000602082015250565b6000612ad0602483611d3d565b9150612adb82612a74565b604082019050919050565b60006020820190508181036000830152612aff81612ac3565b9050919050565b6000612b1182611ded565b9150612b1c83611ded565b925082821015612b2f57612b2e61276d565b5b828203905092915050565b7f4552433732313a206d696e7420746f20746865207a65726f2061646472657373600082015250565b6000612b70602083611d3d565b9150612b7b82612b3a565b602082019050919050565b60006020820190508181036000830152612b9f81612b63565b9050919050565b7f4552433732313a20746f6b656e20616c7265616479206d696e74656400000000600082015250565b6000612bdc601c83611d3d565b9150612be782612ba6565b602082019050919050565b60006020820190508181036000830152612c0b81612bcf565b9050919050565b7f45524337323155524953746f726167653a2055524920736574206f66206e6f6e60008201527f6578697374656e7420746f6b656e000000000000000000000000000000000000602082015250565b6000612c6e602e83611d3d565b9150612c7982612c12565b604082019050919050565b60006020820190508181036000830152612c9d81612c61565b9050919050565b7f4552433732313a20617070726f766520746f2063616c6c657200000000000000600082015250565b6000612cda601983611d3d565b9150612ce582612ca4565b602082019050919050565b60006020820190508181036000830152612d0981612ccd565b9050919050565b7f4552433732313a207472616e7366657220746f206e6f6e20455243373231526560008201527f63656976657220696d706c656d656e7465720000000000000000000000000000602082015250565b6000612d6c603283611d3d565b9150612d7782612d10565b604082019050919050565b60006020820190508181036000830152612d9b81612d5f565b9050919050565b7f4552433732314d657461646174613a2055524920717565727920666f72206e6f60008201527f6e6578697374656e7420746f6b656e0000000000000000000000000000000000602082015250565b6000612dfe602f83611d3d565b9150612e0982612da2565b604082019050919050565b60006020820190508181036000830152612e2d81612df1565b9050919050565b600081519050919050565b600082825260208201905092915050565b6000612e5b82612e34565b612e658185612e3f565b9350612e75818560208601611d4e565b612e7e81611d81565b840191505092915050565b6000608082019050612e9e6000830187611e82565b612eab6020830186611e82565b612eb86040830185611f45565b8181036060830152612eca8184612e50565b905095945050505050565b600081519050612ee481611ca3565b92915050565b600060208284031215612f0057612eff611c6d565b5b6000612f0e84828501612ed5565b91505092915050565b6000612f2282611ded565b91507fffffffffffffffffffffffffffffffffffffffffffffffffffffffffffffffff8203612f5457612f5361276d565b5b600182019050919050565b7f4e487b7100000000000000000000000000000000000000000000000000000000600052601260045260246000fd5b6000612f9982611ded565b9150612fa483611ded565b925082612fb457612fb3612f5f565b5b828204905092915050565b6000612fca82611ded565b9150612fd583611ded565b925082612fe557612fe4612f5f565b5b828206905092915050565b7f4e487b7100000000000000000000000000000000000000000000000000000000600052603260045260246000fdfea264697066735822122010419667fca4742d24adad1d6b2187a78c999bae5468775a6bf2a641ba80c2ab64736f6c634300080d0033",
  "immutableReferences": {},
  "source": "// SPDX-License-Identifier: MIT\npragma solidity ^0.8.0;\n\nimport \"@openzeppelin/contracts/token/ERC721/ERC721.sol\";\nimport \"@openzeppelin/contracts/token/ERC721/extensions/ERC721URIStorage.sol\";\nimport \"@openzeppelin/contracts/utils/Counters.sol\";\n\ncontract StoreListings is ERC721URIStorage {\n    using Counters for Counters.Counter;\n    Counters.Counter private _tokenIds;\n\n    constructor() ERC721(\"StoreListing\", \"ITM\") {}\n\n    mapping(address => uint256) public tips;\n    mapping(uint256 => uint256) public prices;\n    function createListing(address lister, string memory tokenURI, uint256 price) public\nreturns (uint256)\n    {\n        _tokenIds.increment();\n\n        uint256 newItemId = _tokenIds.current();\n        _mint(lister, newItemId);\n        prices[newItemId] = price;\n        _setTokenURI(newItemId, tokenURI);\n\n        return newItemId;\n    }\n\n    function buy(uint256 tokenId) payable public{\n             uint256 tokenprice = prices[tokenId];\n             require(msg.value == tokenprice, \"Check price\");\n             //Get owner of items address\n             address payable to = payable(ownerOf(tokenId));\n             to.transfer(msg.value);\n    }\n\n    function tip(address payable to) payable public{\n             to.transfer(msg.value);\n             tips[to] += msg.value;\n    }\n\n    function tipScore(address userAddress) public returns (uint256) {\n             return tips[userAddress];\n    }\n}\n",
  "sourcePath": "/home/fulton/code/crypto-market/contracts/market.sol",
  "compiler": {
    "name": "solc",
    "version": "0.8.13+commit.abaa5c0e.Emscripten.clang"
  },
  "schemaVersion": "3.4.7",
  "updatedAt": "2022-04-30T14:52:42.499Z",
  "devdoc": {
    "kind": "dev",
    "methods": {
      "approve(address,uint256)": {
        "details": "See {IERC721-approve}."
      },
      "balanceOf(address)": {
        "details": "See {IERC721-balanceOf}."
      },
      "getApproved(uint256)": {
        "details": "See {IERC721-getApproved}."
      },
      "isApprovedForAll(address,address)": {
        "details": "See {IERC721-isApprovedForAll}."
      },
      "name()": {
        "details": "See {IERC721Metadata-name}."
      },
      "ownerOf(uint256)": {
        "details": "See {IERC721-ownerOf}."
      },
      "safeTransferFrom(address,address,uint256)": {
        "details": "See {IERC721-safeTransferFrom}."
      },
      "safeTransferFrom(address,address,uint256,bytes)": {
        "details": "See {IERC721-safeTransferFrom}."
      },
      "setApprovalForAll(address,bool)": {
        "details": "See {IERC721-setApprovalForAll}."
      },
      "supportsInterface(bytes4)": {
        "details": "See {IERC165-supportsInterface}."
      },
      "symbol()": {
        "details": "See {IERC721Metadata-symbol}."
      },
      "tokenURI(uint256)": {
        "details": "See {IERC721Metadata-tokenURI}."
      },
      "transferFrom(address,address,uint256)": {
        "details": "See {IERC721-transferFrom}."
      }
    },
    "version": 1
  },
  "userdoc": {
    "kind": "user",
    "methods": {},
    "version": 1
  }
}